{
  "_format": "hh-sol-artifact-1",
  "contractName": "GoalFactory",
  "sourceName": "contracts/GoalFactory.sol",
  "abi": [
    {
      "inputs": [],
      "stateMutability": "nonpayable",
      "type": "constructor"
    },
    {
      "anonymous": false,
      "inputs": [
        {
          "indexed": false,
          "internalType": "uint256",
          "name": "uniqueId",
          "type": "uint256"
        },
        {
          "indexed": false,
          "internalType": "address",
          "name": "recipient",
          "type": "address"
        },
        {
          "indexed": false,
          "internalType": "uint256",
          "name": "amount",
          "type": "uint256"
        },
        {
          "indexed": false,
          "internalType": "uint8",
          "name": "finalStatus",
          "type": "uint8"
        },
        {
          "indexed": false,
          "internalType": "uint256",
          "name": "updatedAt",
          "type": "uint256"
        }
      ],
      "name": "FundsWithdrawn",
      "type": "event"
    },
    {
      "anonymous": false,
      "inputs": [
        {
          "indexed": true,
          "internalType": "uint256",
          "name": "uniqueId",
          "type": "uint256"
        },
        {
          "indexed": true,
          "internalType": "address",
          "name": "creator",
          "type": "address"
        },
        {
          "indexed": false,
          "internalType": "address",
          "name": "referee",
          "type": "address"
        },
        {
          "indexed": false,
          "internalType": "address",
          "name": "successRecipient",
          "type": "address"
        },
        {
          "indexed": false,
          "internalType": "address",
          "name": "failureRecipient",
          "type": "address"
        },
        {
          "indexed": false,
          "internalType": "uint256",
          "name": "escrowAmount",
          "type": "uint256"
        },
        {
          "indexed": false,
          "internalType": "bytes32",
          "name": "goalHash",
          "type": "bytes32"
        },
        {
          "indexed": false,
          "internalType": "uint256",
          "name": "createdAt",
          "type": "uint256"
        },
        {
          "indexed": false,
          "internalType": "uint256",
          "name": "expiry",
          "type": "uint256"
        },
        {
          "indexed": false,
          "internalType": "uint8",
          "name": "status",
          "type": "uint8"
        }
      ],
      "name": "GoalCreated",
      "type": "event"
    },
    {
      "anonymous": false,
      "inputs": [
        {
          "indexed": false,
          "internalType": "uint256",
          "name": "uniqueId",
          "type": "uint256"
        },
        {
          "indexed": false,
          "internalType": "uint8",
          "name": "newStatus",
          "type": "uint8"
        },
        {
          "indexed": false,
          "internalType": "uint256",
          "name": "updatedAt",
          "type": "uint256"
        }
      ],
      "name": "GoalStatusChanged",
      "type": "event"
    },
    {
      "inputs": [
        {
          "internalType": "address",
          "name": "_referee",
          "type": "address"
        },
        {
          "internalType": "address",
          "name": "_successRecipient",
          "type": "address"
        },
        {
          "internalType": "address",
          "name": "_failureRecipient",
          "type": "address"
        },
        {
          "internalType": "uint256",
          "name": "_escrowAmount",
          "type": "uint256"
        },
        {
          "internalType": "bytes32",
          "name": "_goalHash",
          "type": "bytes32"
        },
        {
          "internalType": "uint256",
          "name": "_expiry",
          "type": "uint256"
        }
      ],
      "name": "createGoal",
      "outputs": [],
      "stateMutability": "payable",
      "type": "function"
    },
    {
      "inputs": [
        {
          "internalType": "uint256",
          "name": "_goalId",
          "type": "uint256"
        }
      ],
      "name": "getGoal",
      "outputs": [
        {
          "components": [
            {
              "internalType": "address",
              "name": "successRecipient",
              "type": "address"
            },
            {
              "internalType": "address",
              "name": "failureRecipient",
              "type": "address"
            },
            {
              "internalType": "address",
              "name": "creator",
              "type": "address"
            },
            {
              "internalType": "address",
              "name": "referee",
              "type": "address"
            },
            {
              "internalType": "uint256",
              "name": "escrowAmount",
              "type": "uint256"
            },
            {
              "internalType": "uint256",
              "name": "expiry",
              "type": "uint256"
            },
            {
              "internalType": "bytes32",
              "name": "goalHash",
              "type": "bytes32"
            },
            {
              "internalType": "uint8",
              "name": "status",
              "type": "uint8"
            }
          ],
          "internalType": "struct GoalFactory.Goal",
          "name": "",
          "type": "tuple"
        }
      ],
      "stateMutability": "view",
      "type": "function"
    },
    {
      "inputs": [],
      "name": "goalCounter",
      "outputs": [
        {
          "internalType": "uint256",
          "name": "",
          "type": "uint256"
        }
      ],
      "stateMutability": "view",
      "type": "function"
    },
    {
      "inputs": [
        {
          "internalType": "uint256",
          "name": "",
          "type": "uint256"
        }
      ],
      "name": "goals",
      "outputs": [
        {
          "internalType": "address",
          "name": "successRecipient",
          "type": "address"
        },
        {
          "internalType": "address",
          "name": "failureRecipient",
          "type": "address"
        },
        {
          "internalType": "address",
          "name": "creator",
          "type": "address"
        },
        {
          "internalType": "address",
          "name": "referee",
          "type": "address"
        },
        {
          "internalType": "uint256",
          "name": "escrowAmount",
          "type": "uint256"
        },
        {
          "internalType": "uint256",
          "name": "expiry",
          "type": "uint256"
        },
        {
          "internalType": "bytes32",
          "name": "goalHash",
          "type": "bytes32"
        },
        {
          "internalType": "uint8",
          "name": "status",
          "type": "uint8"
        }
      ],
      "stateMutability": "view",
      "type": "function"
    },
    {
      "inputs": [],
      "name": "owner",
      "outputs": [
        {
          "internalType": "address",
          "name": "",
          "type": "address"
        }
      ],
      "stateMutability": "view",
      "type": "function"
    },
    {
      "inputs": [
        {
          "internalType": "uint256",
          "name": "_goalId",
          "type": "uint256"
        }
      ],
      "name": "setGoalMet",
      "outputs": [],
      "stateMutability": "nonpayable",
      "type": "function"
    },
    {
      "inputs": [
        {
          "internalType": "uint256",
          "name": "_goalId",
          "type": "uint256"
        }
      ],
      "name": "withdrawFunds",
      "outputs": [],
      "stateMutability": "nonpayable",
      "type": "function"
    }
  ],
  "bytecode": "0x608060405234801561001057600080fd5b50336000806101000a81548173ffffffffffffffffffffffffffffffffffffffff021916908373ffffffffffffffffffffffffffffffffffffffff160217905550600060018190555061009e6040518060400160405280601581526020017f436f6e7472616374206465706c6f7965642062793a0000000000000000000000815250336100a360201b60201c565b6102d6565b61014182826040516024016100b9929190610277565b6040516020818303038152906040527f319af333000000000000000000000000000000000000000000000000000000007bffffffffffffffffffffffffffffffffffffffffffffffffffffffff19166020820180517bffffffffffffffffffffffffffffffffffffffffffffffffffffffff838183161783525050505061014560201b60201c565b5050565b6101668161016161016960201b6115ea1761018a60201b60201c565b60201c565b50565b60006a636f6e736f6c652e6c6f679050600080835160208501845afa505050565b61019c60201b61180117819050919050565b6101a46102a7565b565b600081519050919050565b600082825260208201905092915050565b60005b838110156101e05780820151818401526020810190506101c5565b60008484015250505050565b6000601f19601f8301169050919050565b6000610208826101a6565b61021281856101b1565b93506102228185602086016101c2565b61022b816101ec565b840191505092915050565b600073ffffffffffffffffffffffffffffffffffffffff82169050919050565b600061026182610236565b9050919050565b61027181610256565b82525050565b6000604082019050818103600083015261029181856101fd565b90506102a06020830184610268565b9392505050565b7f4e487b7100000000000000000000000000000000000000000000000000000000600052605160045260246000fd5b6125b6806102e56000396000f3fe6080604052600436106100705760003560e01c80638da5cb5b1161004e5780638da5cb5b146100fe5780639085a46f14610129578063df6ed6cb14610152578063f9e9ad391461018f57610070565b8063155dd5ee1461007557806361449ca21461009e578063760c81d9146100e2575b600080fd5b34801561008157600080fd5b5061009c600480360381019061009791906118e9565b6101ba565b005b3480156100aa57600080fd5b506100c560048036038101906100c091906118e9565b6106cc565b6040516100d998979695949392919061199b565b60405180910390f35b6100fc60048036038101906100f79190611a71565b6107a1565b005b34801561010a57600080fd5b50610113610e86565b6040516101209190611afe565b60405180910390f35b34801561013557600080fd5b50610150600480360381019061014b91906118e9565b610eaa565b005b34801561015e57600080fd5b50610179600480360381019061017491906118e9565b6113a0565b6040516101869190611bf7565b60405180910390f35b34801561019b57600080fd5b506101a46115e4565b6040516101b19190611c13565b60405180910390f35b806101f96040518060400160405280601d81526020017f6f6e6c794661696c757265526563697069656e74206d6f64696669657200000081525061160b565b6102386040518060400160405280600b81526020017f6d73672e73656e6465723a000000000000000000000000000000000000000000815250336116a4565b6102ad6040518060400160405280600981526020017f65787065637465643a00000000000000000000000000000000000000000000008152506002600084815260200190815260200160002060010160009054906101000a900473ffffffffffffffffffffffffffffffffffffffff166116a4565b6002600082815260200190815260200160002060010160009054906101000a900473ffffffffffffffffffffffffffffffffffffffff1673ffffffffffffffffffffffffffffffffffffffff163373ffffffffffffffffffffffffffffffffffffffff1614610351576040517f08c379a000000000000000000000000000000000000000000000000000000000815260040161034890611cb1565b60405180910390fd5b6103906040518060400160405280601a81526020017f776974686472617746756e647328292063616c6c65642062793a000000000000815250336116a4565b600060026000848152602001908152602001600020905060008160040154116103ee576040517f08c379a00000000000000000000000000000000000000000000000000000000081526004016103e590611d1d565b60405180910390fd5b61042c6040518060400160405280601381526020017f657363726f77416d6f756e74206578697374730000000000000000000000000081525061160b565b80600501544211610472576040517f08c379a000000000000000000000000000000000000000000000000000000000815260040161046990611d89565b60405180910390fd5b6104b06040518060400160405280601081526020017f676f616c2068617320657870697265640000000000000000000000000000000081525061160b565b60008160070160009054906101000a900460ff1660ff160361068c5760058160070160006101000a81548160ff021916908360ff1602179055507f707ce37650e910ada206ba6ce1ad388063a0e9de57db74ae1b0cd1d8ce29d03a8360054260405161051e93929190611dee565b60405180910390a161054760405180606001604052806022815260200161255f6022913961160b565b8060010160009054906101000a900473ffffffffffffffffffffffffffffffffffffffff1673ffffffffffffffffffffffffffffffffffffffff166108fc82600401549081150290604051600060405180830381858888f193505050501580156105b5573d6000803e3d6000fd5b506000816004015490507f6bf314ec600e58462ecffcf618ecd7b03a0e8385f703e1faf78ef613840fc047848360010160009054906101000a900473ffffffffffffffffffffffffffffffffffffffff168360054260405161061b959493929190611e25565b60405180910390a16106866040518060400160405280601f81526020017f46756e64732073656e7420746f206661696c757265526563697069656e743a008152508360010160009054906101000a900473ffffffffffffffffffffffffffffffffffffffff166116a4565b506106c7565b6040517f08c379a00000000000000000000000000000000000000000000000000000000081526004016106be90611eea565b60405180910390fd5b505050565b60026020528060005260406000206000915090508060000160009054906101000a900473ffffffffffffffffffffffffffffffffffffffff16908060010160009054906101000a900473ffffffffffffffffffffffffffffffffffffffff16908060020160009054906101000a900473ffffffffffffffffffffffffffffffffffffffff16908060030160009054906101000a900473ffffffffffffffffffffffffffffffffffffffff16908060040154908060050154908060060154908060070160009054906101000a900460ff16905088565b6107df6040518060400160405280601481526020017f456e746572656420637265617465476f616c282900000000000000000000000081525061160b565b61081e6040518060400160405280600b81526020017f6d73672e73656e6465723a000000000000000000000000000000000000000000815250336116a4565b61085d6040518060400160405280600a81526020017f6d73672e76616c75653a0000000000000000000000000000000000000000000081525034611740565b61089c6040518060400160405280600e81526020017f5f657363726f77416d6f756e743a00000000000000000000000000000000000081525084611740565b8234146108de576040517f08c379a00000000000000000000000000000000000000000000000000000000081526004016108d590611f56565b60405180910390fd5b61091c6040518060400160405280601481526020017f657363726f77416d6f756e74206d61746368656400000000000000000000000081525061160b565b42811161095e576040517f08c379a000000000000000000000000000000000000000000000000000000000815260040161095590611fc2565b60405180910390fd5b61099c6040518060400160405280601781526020017f65787069727920697320696e207468652066757475726500000000000000000081525061160b565b600073ffffffffffffffffffffffffffffffffffffffff168673ffffffffffffffffffffffffffffffffffffffff1614158015610a065750600073ffffffffffffffffffffffffffffffffffffffff168573ffffffffffffffffffffffffffffffffffffffff1614155b8015610a3f5750600073ffffffffffffffffffffffffffffffffffffffff168473ffffffffffffffffffffffffffffffffffffffff1614155b610a7e576040517f08c379a0000000000000000000000000000000000000000000000000000000008152600401610a759061202e565b60405180910390fd5b610abc6040518060400160405280601781526020017f616c6c20616464726573736573206172652076616c696400000000000000000081525061160b565b60008311610aff576040517f08c379a0000000000000000000000000000000000000000000000000000000008152600401610af69061209a565b60405180910390fd5b610b3d6040518060400160405280601f81526020017f657363726f7720616d6f756e742069732067726561746572207468616e20300081525061160b565b6040518061010001604052808673ffffffffffffffffffffffffffffffffffffffff1681526020018573ffffffffffffffffffffffffffffffffffffffff1681526020013373ffffffffffffffffffffffffffffffffffffffff1681526020018773ffffffffffffffffffffffffffffffffffffffff168152602001848152602001828152602001838152602001600060ff1681525060026000600154815260200190815260200160002060008201518160000160006101000a81548173ffffffffffffffffffffffffffffffffffffffff021916908373ffffffffffffffffffffffffffffffffffffffff16021790555060208201518160010160006101000a81548173ffffffffffffffffffffffffffffffffffffffff021916908373ffffffffffffffffffffffffffffffffffffffff16021790555060408201518160020160006101000a81548173ffffffffffffffffffffffffffffffffffffffff021916908373ffffffffffffffffffffffffffffffffffffffff16021790555060608201518160030160006101000a81548173ffffffffffffffffffffffffffffffffffffffff021916908373ffffffffffffffffffffffffffffffffffffffff1602179055506080820151816004015560a0820151816005015560c0820151816006015560e08201518160070160006101000a81548160ff021916908360ff160217905550905050610d876040518060400160405280601481526020017f53746f72656420676f616c20776974682049443a000000000000000000000000815250600154611740565b3373ffffffffffffffffffffffffffffffffffffffff166001547fcce591b3155ebe0138eba6a36aade01fc3afb233b20fc63d5d5d6e4862391ceb888888888842896000604051610ddf9897969594939291906120f5565b60405180910390a3610e256040518060400160405280601381526020017f456d697474656420476f616c437265617465640000000000000000000000000081525061160b565b60016000815480929190610e38906121a2565b9190505550610e7e6040518060400160405280601b81526020017f676f616c436f756e74657220696e6372656d656e74656420746f3a0000000000815250600154611740565b505050505050565b60008054906101000a900473ffffffffffffffffffffffffffffffffffffffff1681565b80610ee96040518060400160405280601481526020017f6f6e6c7952656665726565206d6f64696669657200000000000000000000000081525061160b565b610f286040518060400160405280600b81526020017f6d73672e73656e6465723a000000000000000000000000000000000000000000815250336116a4565b610f9d6040518060400160405280601181526020017f657870656374656420726566657265653a0000000000000000000000000000008152506002600084815260200190815260200160002060030160009054906101000a900473ffffffffffffffffffffffffffffffffffffffff166116a4565b6002600082815260200190815260200160002060030160009054906101000a900473ffffffffffffffffffffffffffffffffffffffff1673ffffffffffffffffffffffffffffffffffffffff163373ffffffffffffffffffffffffffffffffffffffff1614611041576040517f08c379a000000000000000000000000000000000000000000000000000000000815260040161103890612236565b60405180910390fd5b816110806040518060400160405280601481526020017f6f6e6c7950656e64696e67206d6f64696669657200000000000000000000000081525061160b565b6110e56040518060400160405280600c81526020017f676f616c2e7374617475733a00000000000000000000000000000000000000008152506002600084815260200190815260200160002060070160009054906101000a900460ff1660ff16611740565b60006002600083815260200190815260200160002060070160009054906101000a900460ff1660ff161461114e576040517f08c379a0000000000000000000000000000000000000000000000000000000008152600401611145906122a2565b60405180910390fd5b61118d6040518060400160405280601781526020017f736574476f616c4d657428292063616c6c65642062793a000000000000000000815250336116a4565b600060026000858152602001908152602001600020905060018160070160006101000a81548160ff021916908360ff1602179055507f707ce37650e910ada206ba6ce1ad388063a0e9de57db74ae1b0cd1d8ce29d03a846001426040516111f6939291906122fd565b60405180910390a161123c6040518060400160405280601f81526020017f456d697474656420476f616c5374617475734368616e67656420284d6574290081525061160b565b8060000160009054906101000a900473ffffffffffffffffffffffffffffffffffffffff1673ffffffffffffffffffffffffffffffffffffffff166108fc82600401549081150290604051600060405180830381858888f193505050501580156112aa573d6000803e3d6000fd5b5060008160040154905060048260070160006101000a81548160ff021916908360ff1602179055507f6bf314ec600e58462ecffcf618ecd7b03a0e8385f703e1faf78ef613840fc047858360000160009054906101000a900473ffffffffffffffffffffffffffffffffffffffff168360044260405161132e95949392919061236f565b60405180910390a16113996040518060400160405280601f81526020017f46756e64732073656e7420746f2073756363657373526563697069656e743a008152508360000160009054906101000a900473ffffffffffffffffffffffffffffffffffffffff166116a4565b5050505050565b6113a861180b565b6113e76040518060400160405280601881526020017f676574476f616c28292063616c6c656420666f722049443a000000000000000081525083611740565b600154821061142b576040517f08c379a00000000000000000000000000000000000000000000000000000000081526004016114229061240e565b60405180910390fd5b60026000838152602001908152602001600020604051806101000160405290816000820160009054906101000a900473ffffffffffffffffffffffffffffffffffffffff1673ffffffffffffffffffffffffffffffffffffffff1673ffffffffffffffffffffffffffffffffffffffff1681526020016001820160009054906101000a900473ffffffffffffffffffffffffffffffffffffffff1673ffffffffffffffffffffffffffffffffffffffff1673ffffffffffffffffffffffffffffffffffffffff1681526020016002820160009054906101000a900473ffffffffffffffffffffffffffffffffffffffff1673ffffffffffffffffffffffffffffffffffffffff1673ffffffffffffffffffffffffffffffffffffffff1681526020016003820160009054906101000a900473ffffffffffffffffffffffffffffffffffffffff1673ffffffffffffffffffffffffffffffffffffffff1673ffffffffffffffffffffffffffffffffffffffff1681526020016004820154815260200160058201548152602001600682015481526020016007820160009054906101000a900460ff1660ff1660ff16815250509050919050565b60015481565b60006a636f6e736f6c652e6c6f679050600080835160208501845afa505050565b6116a18160405160240161161f91906124ad565b6040516020818303038152906040527f41304fac000000000000000000000000000000000000000000000000000000007bffffffffffffffffffffffffffffffffffffffffffffffffffffffff19166020820180517bffffffffffffffffffffffffffffffffffffffffffffffffffffffff83818316178352505050506117dc565b50565b61173c82826040516024016116ba9291906124cf565b6040516020818303038152906040527f319af333000000000000000000000000000000000000000000000000000000007bffffffffffffffffffffffffffffffffffffffffffffffffffffffff19166020820180517bffffffffffffffffffffffffffffffffffffffffffffffffffffffff83818316178352505050506117dc565b5050565b6117d882826040516024016117569291906124ff565b6040516020818303038152906040527fb60e72cc000000000000000000000000000000000000000000000000000000007bffffffffffffffffffffffffffffffffffffffffffffffffffffffff19166020820180517bffffffffffffffffffffffffffffffffffffffffffffffffffffffff83818316178352505050506117dc565b5050565b6117f3816117eb6115ea6117f6565b63ffffffff16565b50565b611801819050919050565b61180961252f565b565b604051806101000160405280600073ffffffffffffffffffffffffffffffffffffffff168152602001600073ffffffffffffffffffffffffffffffffffffffff168152602001600073ffffffffffffffffffffffffffffffffffffffff168152602001600073ffffffffffffffffffffffffffffffffffffffff168152602001600081526020016000815260200160008019168152602001600060ff1681525090565b600080fd5b6000819050919050565b6118c6816118b3565b81146118d157600080fd5b50565b6000813590506118e3816118bd565b92915050565b6000602082840312156118ff576118fe6118ae565b5b600061190d848285016118d4565b91505092915050565b600073ffffffffffffffffffffffffffffffffffffffff82169050919050565b600061194182611916565b9050919050565b61195181611936565b82525050565b611960816118b3565b82525050565b6000819050919050565b61197981611966565b82525050565b600060ff82169050919050565b6119958161197f565b82525050565b6000610100820190506119b1600083018b611948565b6119be602083018a611948565b6119cb6040830189611948565b6119d86060830188611948565b6119e56080830187611957565b6119f260a0830186611957565b6119ff60c0830185611970565b611a0c60e083018461198c565b9998505050505050505050565b611a2281611936565b8114611a2d57600080fd5b50565b600081359050611a3f81611a19565b92915050565b611a4e81611966565b8114611a5957600080fd5b50565b600081359050611a6b81611a45565b92915050565b60008060008060008060c08789031215611a8e57611a8d6118ae565b5b6000611a9c89828a01611a30565b9650506020611aad89828a01611a30565b9550506040611abe89828a01611a30565b9450506060611acf89828a016118d4565b9350506080611ae089828a01611a5c565b92505060a0611af189828a016118d4565b9150509295509295509295565b6000602082019050611b136000830184611948565b92915050565b611b2281611936565b82525050565b611b31816118b3565b82525050565b611b4081611966565b82525050565b611b4f8161197f565b82525050565b61010082016000820151611b6c6000850182611b19565b506020820151611b7f6020850182611b19565b506040820151611b926040850182611b19565b506060820151611ba56060850182611b19565b506080820151611bb86080850182611b28565b5060a0820151611bcb60a0850182611b28565b5060c0820151611bde60c0850182611b37565b5060e0820151611bf160e0850182611b46565b50505050565b600061010082019050611c0d6000830184611b55565b92915050565b6000602082019050611c286000830184611957565b92915050565b600082825260208201905092915050565b7f4f6e6c79206661696c75726520726563697069656e742063616e2063616c6c2060008201527f7468697300000000000000000000000000000000000000000000000000000000602082015250565b6000611c9b602483611c2e565b9150611ca682611c3f565b604082019050919050565b60006020820190508181036000830152611cca81611c8e565b9050919050565b7f4e6f2066756e647320746f207769746864726177000000000000000000000000600082015250565b6000611d07601483611c2e565b9150611d1282611cd1565b602082019050919050565b60006020820190508181036000830152611d3681611cfa565b9050919050565b7f476f616c20686173206e6f742079657420657870697265640000000000000000600082015250565b6000611d73601883611c2e565b9150611d7e82611d3d565b602082019050919050565b60006020820190508181036000830152611da281611d66565b9050919050565b6000819050919050565b6000819050919050565b6000611dd8611dd3611dce84611da9565b611db3565b61197f565b9050919050565b611de881611dbd565b82525050565b6000606082019050611e036000830186611957565b611e106020830185611ddf565b611e1d6040830184611957565b949350505050565b600060a082019050611e3a6000830188611957565b611e476020830187611948565b611e546040830186611957565b611e616060830185611ddf565b611e6e6080830184611957565b9695505050505050565b7f46756e64732063616e6e6f742062652077697468647261776e2061742074686960008201527f732074696d650000000000000000000000000000000000000000000000000000602082015250565b6000611ed4602683611c2e565b9150611edf82611e78565b604082019050919050565b60006020820190508181036000830152611f0381611ec7565b9050919050565b7f496e636f727265637420657363726f7720616d6f756e74000000000000000000600082015250565b6000611f40601783611c2e565b9150611f4b82611f0a565b602082019050919050565b60006020820190508181036000830152611f6f81611f33565b9050919050565b7f457870697279206d75737420626520696e207468652066757475726500000000600082015250565b6000611fac601c83611c2e565b9150611fb782611f76565b602082019050919050565b60006020820190508181036000830152611fdb81611f9f565b9050919050565b7f496e76616c696420616464726573736573000000000000000000000000000000600082015250565b6000612018601183611c2e565b915061202382611fe2565b602082019050919050565b600060208201905081810360008301526120478161200b565b9050919050565b7f457363726f7720616d6f756e74206d757374206265203e203000000000000000600082015250565b6000612084601983611c2e565b915061208f8261204e565b602082019050919050565b600060208201905081810360008301526120b381612077565b9050919050565b6000819050919050565b60006120df6120da6120d5846120ba565b611db3565b61197f565b9050919050565b6120ef816120c4565b82525050565b60006101008201905061210b600083018b611948565b612118602083018a611948565b6121256040830189611948565b6121326060830188611957565b61213f6080830187611970565b61214c60a0830186611957565b61215960c0830185611957565b61216660e08301846120e6565b9998505050505050505050565b7f4e487b7100000000000000000000000000000000000000000000000000000000600052601160045260246000fd5b60006121ad826118b3565b91507fffffffffffffffffffffffffffffffffffffffffffffffffffffffffffffffff82036121df576121de612173565b5b600182019050919050565b7f4f6e6c7920726566657265652063616e2063616c6c2074686973000000000000600082015250565b6000612220601a83611c2e565b915061222b826121ea565b602082019050919050565b6000602082019050818103600083015261224f81612213565b9050919050565b7f476f616c206973206e6f742070656e64696e6700000000000000000000000000600082015250565b600061228c601383611c2e565b915061229782612256565b602082019050919050565b600060208201905081810360008301526122bb8161227f565b9050919050565b6000819050919050565b60006122e76122e26122dd846122c2565b611db3565b61197f565b9050919050565b6122f7816122cc565b82525050565b60006060820190506123126000830186611957565b61231f60208301856122ee565b61232c6040830184611957565b949350505050565b6000819050919050565b600061235961235461234f84612334565b611db3565b61197f565b9050919050565b6123698161233e565b82525050565b600060a0820190506123846000830188611957565b6123916020830187611948565b61239e6040830186611957565b6123ab6060830185612360565b6123b86080830184611957565b9695505050505050565b7f476f616c20646f6573206e6f7420657869737400000000000000000000000000600082015250565b60006123f8601383611c2e565b9150612403826123c2565b602082019050919050565b60006020820190508181036000830152612427816123eb565b9050919050565b600081519050919050565b60005b8381101561245757808201518184015260208101905061243c565b60008484015250505050565b6000601f19601f8301169050919050565b600061247f8261242e565b6124898185611c2e565b9350612499818560208601612439565b6124a281612463565b840191505092915050565b600060208201905081810360008301526124c78184612474565b905092915050565b600060408201905081810360008301526124e98185612474565b90506124f86020830184611948565b9392505050565b600060408201905081810360008301526125198185612474565b90506125286020830184611957565b9392505050565b7f4e487b7100000000000000000000000000000000000000000000000000000000600052605160045260246000fdfe456d697474656420476f616c5374617475734368616e67656420284661696c656429a26469706673582212202003f072e3c9784d562f28256168564e587ea73813b02d3017c0d1ce611b96d264736f6c634300081c0033",
  "linkReferences": {},
  "deployedLinkReferences": {}
}