{
  "_format": "hh-sol-artifact-1",
  "contractName": "GoalFactory",
  "sourceName": "contracts/GoalFactory.sol",
  "abi": [
    {
      "inputs": [],
      "stateMutability": "nonpayable",
      "type": "constructor"
    },
    {
      "anonymous": false,
      "inputs": [
        {
          "indexed": false,
          "internalType": "uint256",
          "name": "uniqueId",
          "type": "uint256"
        },
        {
          "indexed": false,
          "internalType": "address",
          "name": "recipient",
          "type": "address"
        },
        {
          "indexed": false,
          "internalType": "uint256",
          "name": "amount",
          "type": "uint256"
        },
        {
          "indexed": false,
          "internalType": "uint8",
          "name": "finalStatus",
          "type": "uint8"
        },
        {
          "indexed": false,
          "internalType": "uint256",
          "name": "updatedAt",
          "type": "uint256"
        }
      ],
      "name": "FundsWithdrawn",
      "type": "event"
    },
    {
      "anonymous": false,
      "inputs": [
        {
          "indexed": false,
          "internalType": "uint256",
          "name": "uniqueId",
          "type": "uint256"
        },
        {
          "indexed": false,
          "internalType": "address",
          "name": "creator",
          "type": "address"
        },
        {
          "indexed": false,
          "internalType": "address",
          "name": "referee",
          "type": "address"
        },
        {
          "indexed": false,
          "internalType": "address",
          "name": "successRecipient",
          "type": "address"
        },
        {
          "indexed": false,
          "internalType": "address",
          "name": "failureRecipient",
          "type": "address"
        },
        {
          "indexed": false,
          "internalType": "uint256",
          "name": "escrowAmount",
          "type": "uint256"
        },
        {
          "indexed": false,
          "internalType": "bytes32",
          "name": "goalHash",
          "type": "bytes32"
        },
        {
          "indexed": false,
          "internalType": "uint256",
          "name": "createdAt",
          "type": "uint256"
        },
        {
          "indexed": false,
          "internalType": "uint256",
          "name": "expiry",
          "type": "uint256"
        },
        {
          "indexed": false,
          "internalType": "uint8",
          "name": "status",
          "type": "uint8"
        }
      ],
      "name": "GoalCreated",
      "type": "event"
    },
    {
      "anonymous": false,
      "inputs": [
        {
          "indexed": false,
          "internalType": "uint256",
          "name": "uniqueId",
          "type": "uint256"
        },
        {
          "indexed": false,
          "internalType": "uint8",
          "name": "newStatus",
          "type": "uint8"
        },
        {
          "indexed": false,
          "internalType": "uint256",
          "name": "updatedAt",
          "type": "uint256"
        }
      ],
      "name": "GoalStatusChanged",
      "type": "event"
    },
    {
      "inputs": [
        {
          "internalType": "address",
          "name": "_referee",
          "type": "address"
        },
        {
          "internalType": "address",
          "name": "_successRecipient",
          "type": "address"
        },
        {
          "internalType": "address",
          "name": "_failureRecipient",
          "type": "address"
        },
        {
          "internalType": "uint256",
          "name": "_escrowAmount",
          "type": "uint256"
        },
        {
          "internalType": "bytes32",
          "name": "_goalHash",
          "type": "bytes32"
        },
        {
          "internalType": "uint256",
          "name": "_expiry",
          "type": "uint256"
        }
      ],
      "name": "createGoal",
      "outputs": [],
      "stateMutability": "payable",
      "type": "function"
    },
    {
      "inputs": [
        {
          "internalType": "uint256",
          "name": "_goalId",
          "type": "uint256"
        }
      ],
      "name": "getGoal",
      "outputs": [
        {
          "components": [
            {
              "internalType": "address",
              "name": "successRecipient",
              "type": "address"
            },
            {
              "internalType": "address",
              "name": "failureRecipient",
              "type": "address"
            },
            {
              "internalType": "address",
              "name": "creator",
              "type": "address"
            },
            {
              "internalType": "address",
              "name": "referee",
              "type": "address"
            },
            {
              "internalType": "uint256",
              "name": "escrowAmount",
              "type": "uint256"
            },
            {
              "internalType": "uint256",
              "name": "expiry",
              "type": "uint256"
            },
            {
              "internalType": "bytes32",
              "name": "goalHash",
              "type": "bytes32"
            },
            {
              "internalType": "uint8",
              "name": "status",
              "type": "uint8"
            }
          ],
          "internalType": "struct GoalFactory.Goal",
          "name": "",
          "type": "tuple"
        }
      ],
      "stateMutability": "view",
      "type": "function"
    },
    {
      "inputs": [],
      "name": "goalCounter",
      "outputs": [
        {
          "internalType": "uint256",
          "name": "",
          "type": "uint256"
        }
      ],
      "stateMutability": "view",
      "type": "function"
    },
    {
      "inputs": [
        {
          "internalType": "uint256",
          "name": "",
          "type": "uint256"
        }
      ],
      "name": "goals",
      "outputs": [
        {
          "internalType": "address",
          "name": "successRecipient",
          "type": "address"
        },
        {
          "internalType": "address",
          "name": "failureRecipient",
          "type": "address"
        },
        {
          "internalType": "address",
          "name": "creator",
          "type": "address"
        },
        {
          "internalType": "address",
          "name": "referee",
          "type": "address"
        },
        {
          "internalType": "uint256",
          "name": "escrowAmount",
          "type": "uint256"
        },
        {
          "internalType": "uint256",
          "name": "expiry",
          "type": "uint256"
        },
        {
          "internalType": "bytes32",
          "name": "goalHash",
          "type": "bytes32"
        },
        {
          "internalType": "uint8",
          "name": "status",
          "type": "uint8"
        }
      ],
      "stateMutability": "view",
      "type": "function"
    },
    {
      "inputs": [],
      "name": "owner",
      "outputs": [
        {
          "internalType": "address",
          "name": "",
          "type": "address"
        }
      ],
      "stateMutability": "view",
      "type": "function"
    },
    {
      "inputs": [
        {
          "internalType": "uint256",
          "name": "_goalId",
          "type": "uint256"
        }
      ],
      "name": "setGoalMet",
      "outputs": [],
      "stateMutability": "nonpayable",
      "type": "function"
    },
    {
      "inputs": [
        {
          "internalType": "uint256",
          "name": "_goalId",
          "type": "uint256"
        }
      ],
      "name": "withdrawFunds",
      "outputs": [],
      "stateMutability": "nonpayable",
      "type": "function"
    }
  ],
  "bytecode": "0x6080604052348015600f57600080fd5b50336000806101000a81548173ffffffffffffffffffffffffffffffffffffffff021916908373ffffffffffffffffffffffffffffffffffffffff1602179055506000600181905550611ab5806100676000396000f3fe6080604052600436106100705760003560e01c80638da5cb5b1161004e5780638da5cb5b146100fe5780639085a46f14610129578063df6ed6cb14610152578063f9e9ad391461018f57610070565b8063155dd5ee1461007557806361449ca21461009e578063760c81d9146100e2575b600080fd5b34801561008157600080fd5b5061009c60048036038101906100979190610f1c565b6101ba565b005b3480156100aa57600080fd5b506100c560048036038101906100c09190610f1c565b61049b565b6040516100d9989796959493929190610fce565b60405180910390f35b6100fc60048036038101906100f791906110a4565b610570565b005b34801561010a57600080fd5b5061011361098e565b6040516101209190611131565b60405180910390f35b34801561013557600080fd5b50610150600480360381019061014b9190610f1c565b6109b2565b005b34801561015e57600080fd5b5061017960048036038101906101749190610f1c565b610c33565b604051610186919061122a565b60405180910390f35b34801561019b57600080fd5b506101a4610e38565b6040516101b19190611246565b60405180910390f35b806002600082815260200190815260200160002060010160009054906101000a900473ffffffffffffffffffffffffffffffffffffffff1673ffffffffffffffffffffffffffffffffffffffff163373ffffffffffffffffffffffffffffffffffffffff161461025f576040517f08c379a0000000000000000000000000000000000000000000000000000000008152600401610256906112e4565b60405180910390fd5b600060026000848152602001908152602001600020905060008160040154116102bd576040517f08c379a00000000000000000000000000000000000000000000000000000000081526004016102b490611350565b60405180910390fd5b80600501544211610303576040517f08c379a00000000000000000000000000000000000000000000000000000000081526004016102fa906113bc565b60405180910390fd5b60008160070160009054906101000a900460ff1660ff160361045b5760058160070160006101000a81548160ff021916908360ff1602179055507f707ce37650e910ada206ba6ce1ad388063a0e9de57db74ae1b0cd1d8ce29d03a8360054260405161037193929190611421565b60405180910390a18060010160009054906101000a900473ffffffffffffffffffffffffffffffffffffffff1673ffffffffffffffffffffffffffffffffffffffff166108fc82600401549081150290604051600060405180830381858888f193505050501580156103e7573d6000803e3d6000fd5b506000816004015490507f6bf314ec600e58462ecffcf618ecd7b03a0e8385f703e1faf78ef613840fc047848360010160009054906101000a900473ffffffffffffffffffffffffffffffffffffffff168360054260405161044d959493929190611458565b60405180910390a150610496565b6040517f08c379a000000000000000000000000000000000000000000000000000000000815260040161048d9061151d565b60405180910390fd5b505050565b60026020528060005260406000206000915090508060000160009054906101000a900473ffffffffffffffffffffffffffffffffffffffff16908060010160009054906101000a900473ffffffffffffffffffffffffffffffffffffffff16908060020160009054906101000a900473ffffffffffffffffffffffffffffffffffffffff16908060030160009054906101000a900473ffffffffffffffffffffffffffffffffffffffff16908060040154908060050154908060060154908060070160009054906101000a900460ff16905088565b8234146105b2576040517f08c379a00000000000000000000000000000000000000000000000000000000081526004016105a990611589565b60405180910390fd5b4281116105f4576040517f08c379a00000000000000000000000000000000000000000000000000000000081526004016105eb906115f5565b60405180910390fd5b600073ffffffffffffffffffffffffffffffffffffffff168673ffffffffffffffffffffffffffffffffffffffff161415801561065e5750600073ffffffffffffffffffffffffffffffffffffffff168573ffffffffffffffffffffffffffffffffffffffff1614155b80156106975750600073ffffffffffffffffffffffffffffffffffffffff168473ffffffffffffffffffffffffffffffffffffffff1614155b6106d6576040517f08c379a00000000000000000000000000000000000000000000000000000000081526004016106cd90611661565b60405180910390fd5b60008311610719576040517f08c379a0000000000000000000000000000000000000000000000000000000008152600401610710906116cd565b60405180910390fd5b6040518061010001604052808673ffffffffffffffffffffffffffffffffffffffff1681526020018573ffffffffffffffffffffffffffffffffffffffff1681526020013373ffffffffffffffffffffffffffffffffffffffff1681526020018773ffffffffffffffffffffffffffffffffffffffff168152602001848152602001828152602001838152602001600060ff1681525060026000600154815260200190815260200160002060008201518160000160006101000a81548173ffffffffffffffffffffffffffffffffffffffff021916908373ffffffffffffffffffffffffffffffffffffffff16021790555060208201518160010160006101000a81548173ffffffffffffffffffffffffffffffffffffffff021916908373ffffffffffffffffffffffffffffffffffffffff16021790555060408201518160020160006101000a81548173ffffffffffffffffffffffffffffffffffffffff021916908373ffffffffffffffffffffffffffffffffffffffff16021790555060608201518160030160006101000a81548173ffffffffffffffffffffffffffffffffffffffff021916908373ffffffffffffffffffffffffffffffffffffffff1602179055506080820151816004015560a0820151816005015560c0820151816006015560e08201518160070160006101000a81548160ff021916908360ff1602179055509050507fcce591b3155ebe0138eba6a36aade01fc3afb233b20fc63d5d5d6e4862391ceb600154338888888888428960006040516109669a99989796959493929190611728565b60405180910390a160016000815480929190610981906117f3565b9190505550505050505050565b60008054906101000a900473ffffffffffffffffffffffffffffffffffffffff1681565b806002600082815260200190815260200160002060030160009054906101000a900473ffffffffffffffffffffffffffffffffffffffff1673ffffffffffffffffffffffffffffffffffffffff163373ffffffffffffffffffffffffffffffffffffffff1614610a57576040517f08c379a0000000000000000000000000000000000000000000000000000000008152600401610a4e90611887565b60405180910390fd5b8160006002600083815260200190815260200160002060070160009054906101000a900460ff1660ff1614610ac1576040517f08c379a0000000000000000000000000000000000000000000000000000000008152600401610ab8906118f3565b60405180910390fd5b600060026000858152602001908152602001600020905060018160070160006101000a81548160ff021916908360ff1602179055507f707ce37650e910ada206ba6ce1ad388063a0e9de57db74ae1b0cd1d8ce29d03a84600142604051610b2a9392919061194e565b60405180910390a18060000160009054906101000a900473ffffffffffffffffffffffffffffffffffffffff1673ffffffffffffffffffffffffffffffffffffffff166108fc82600401549081150290604051600060405180830381858888f19350505050158015610ba0573d6000803e3d6000fd5b5060008160040154905060048260070160006101000a81548160ff021916908360ff1602179055507f6bf314ec600e58462ecffcf618ecd7b03a0e8385f703e1faf78ef613840fc047858360000160009054906101000a900473ffffffffffffffffffffffffffffffffffffffff1683600442604051610c249594939291906119c0565b60405180910390a15050505050565b610c3b610e3e565b6001548210610c7f576040517f08c379a0000000000000000000000000000000000000000000000000000000008152600401610c7690611a5f565b60405180910390fd5b60026000838152602001908152602001600020604051806101000160405290816000820160009054906101000a900473ffffffffffffffffffffffffffffffffffffffff1673ffffffffffffffffffffffffffffffffffffffff1673ffffffffffffffffffffffffffffffffffffffff1681526020016001820160009054906101000a900473ffffffffffffffffffffffffffffffffffffffff1673ffffffffffffffffffffffffffffffffffffffff1673ffffffffffffffffffffffffffffffffffffffff1681526020016002820160009054906101000a900473ffffffffffffffffffffffffffffffffffffffff1673ffffffffffffffffffffffffffffffffffffffff1673ffffffffffffffffffffffffffffffffffffffff1681526020016003820160009054906101000a900473ffffffffffffffffffffffffffffffffffffffff1673ffffffffffffffffffffffffffffffffffffffff1673ffffffffffffffffffffffffffffffffffffffff1681526020016004820154815260200160058201548152602001600682015481526020016007820160009054906101000a900460ff1660ff1660ff16815250509050919050565b60015481565b604051806101000160405280600073ffffffffffffffffffffffffffffffffffffffff168152602001600073ffffffffffffffffffffffffffffffffffffffff168152602001600073ffffffffffffffffffffffffffffffffffffffff168152602001600073ffffffffffffffffffffffffffffffffffffffff168152602001600081526020016000815260200160008019168152602001600060ff1681525090565b600080fd5b6000819050919050565b610ef981610ee6565b8114610f0457600080fd5b50565b600081359050610f1681610ef0565b92915050565b600060208284031215610f3257610f31610ee1565b5b6000610f4084828501610f07565b91505092915050565b600073ffffffffffffffffffffffffffffffffffffffff82169050919050565b6000610f7482610f49565b9050919050565b610f8481610f69565b82525050565b610f9381610ee6565b82525050565b6000819050919050565b610fac81610f99565b82525050565b600060ff82169050919050565b610fc881610fb2565b82525050565b600061010082019050610fe4600083018b610f7b565b610ff1602083018a610f7b565b610ffe6040830189610f7b565b61100b6060830188610f7b565b6110186080830187610f8a565b61102560a0830186610f8a565b61103260c0830185610fa3565b61103f60e0830184610fbf565b9998505050505050505050565b61105581610f69565b811461106057600080fd5b50565b6000813590506110728161104c565b92915050565b61108181610f99565b811461108c57600080fd5b50565b60008135905061109e81611078565b92915050565b60008060008060008060c087890312156110c1576110c0610ee1565b5b60006110cf89828a01611063565b96505060206110e089828a01611063565b95505060406110f189828a01611063565b945050606061110289828a01610f07565b935050608061111389828a0161108f565b92505060a061112489828a01610f07565b9150509295509295509295565b60006020820190506111466000830184610f7b565b92915050565b61115581610f69565b82525050565b61116481610ee6565b82525050565b61117381610f99565b82525050565b61118281610fb2565b82525050565b6101008201600082015161119f600085018261114c565b5060208201516111b2602085018261114c565b5060408201516111c5604085018261114c565b5060608201516111d8606085018261114c565b5060808201516111eb608085018261115b565b5060a08201516111fe60a085018261115b565b5060c082015161121160c085018261116a565b5060e082015161122460e0850182611179565b50505050565b6000610100820190506112406000830184611188565b92915050565b600060208201905061125b6000830184610f8a565b92915050565b600082825260208201905092915050565b7f4f6e6c79206661696c75726520726563697069656e742063616e2063616c6c2060008201527f7468697300000000000000000000000000000000000000000000000000000000602082015250565b60006112ce602483611261565b91506112d982611272565b604082019050919050565b600060208201905081810360008301526112fd816112c1565b9050919050565b7f4e6f2066756e647320746f207769746864726177000000000000000000000000600082015250565b600061133a601483611261565b915061134582611304565b602082019050919050565b600060208201905081810360008301526113698161132d565b9050919050565b7f476f616c20686173206e6f742079657420657870697265640000000000000000600082015250565b60006113a6601883611261565b91506113b182611370565b602082019050919050565b600060208201905081810360008301526113d581611399565b9050919050565b6000819050919050565b6000819050919050565b600061140b611406611401846113dc565b6113e6565b610fb2565b9050919050565b61141b816113f0565b82525050565b60006060820190506114366000830186610f8a565b6114436020830185611412565b6114506040830184610f8a565b949350505050565b600060a08201905061146d6000830188610f8a565b61147a6020830187610f7b565b6114876040830186610f8a565b6114946060830185611412565b6114a16080830184610f8a565b9695505050505050565b7f46756e64732063616e6e6f742062652077697468647261776e2061742074686960008201527f732074696d650000000000000000000000000000000000000000000000000000602082015250565b6000611507602683611261565b9150611512826114ab565b604082019050919050565b60006020820190508181036000830152611536816114fa565b9050919050565b7f496e636f727265637420657363726f7720616d6f756e74000000000000000000600082015250565b6000611573601783611261565b915061157e8261153d565b602082019050919050565b600060208201905081810360008301526115a281611566565b9050919050565b7f457870697279206d75737420626520696e207468652066757475726500000000600082015250565b60006115df601c83611261565b91506115ea826115a9565b602082019050919050565b6000602082019050818103600083015261160e816115d2565b9050919050565b7f496e76616c696420616464726573736573000000000000000000000000000000600082015250565b600061164b601183611261565b915061165682611615565b602082019050919050565b6000602082019050818103600083015261167a8161163e565b9050919050565b7f457363726f7720616d6f756e74206d757374206265203e203000000000000000600082015250565b60006116b7601983611261565b91506116c282611681565b602082019050919050565b600060208201905081810360008301526116e6816116aa565b9050919050565b6000819050919050565b600061171261170d611708846116ed565b6113e6565b610fb2565b9050919050565b611722816116f7565b82525050565b60006101408201905061173e600083018d610f8a565b61174b602083018c610f7b565b611758604083018b610f7b565b611765606083018a610f7b565b6117726080830189610f7b565b61177f60a0830188610f8a565b61178c60c0830187610fa3565b61179960e0830186610f8a565b6117a7610100830185610f8a565b6117b5610120830184611719565b9b9a5050505050505050505050565b7f4e487b7100000000000000000000000000000000000000000000000000000000600052601160045260246000fd5b60006117fe82610ee6565b91507fffffffffffffffffffffffffffffffffffffffffffffffffffffffffffffffff82036118305761182f6117c4565b5b600182019050919050565b7f4f6e6c7920726566657265652063616e2063616c6c2074686973000000000000600082015250565b6000611871601a83611261565b915061187c8261183b565b602082019050919050565b600060208201905081810360008301526118a081611864565b9050919050565b7f476f616c206973206e6f742070656e64696e6700000000000000000000000000600082015250565b60006118dd601383611261565b91506118e8826118a7565b602082019050919050565b6000602082019050818103600083015261190c816118d0565b9050919050565b6000819050919050565b600061193861193361192e84611913565b6113e6565b610fb2565b9050919050565b6119488161191d565b82525050565b60006060820190506119636000830186610f8a565b611970602083018561193f565b61197d6040830184610f8a565b949350505050565b6000819050919050565b60006119aa6119a56119a084611985565b6113e6565b610fb2565b9050919050565b6119ba8161198f565b82525050565b600060a0820190506119d56000830188610f8a565b6119e26020830187610f7b565b6119ef6040830186610f8a565b6119fc60608301856119b1565b611a096080830184610f8a565b9695505050505050565b7f476f616c20646f6573206e6f7420657869737400000000000000000000000000600082015250565b6000611a49601383611261565b9150611a5482611a13565b602082019050919050565b60006020820190508181036000830152611a7881611a3c565b905091905056fea26469706673582212201e93240fd7bea68ccf92bf0bd12677f5e7d35541d4a9104004727f0fa8e0f3cb64736f6c634300081c0033",
  "linkReferences": {},
  "deployedLinkReferences": {}
}